{
  "contractName": "Ballot",
  "abi": [
    {
      "inputs": [
        {
          "internalType": "bytes32[]",
          "name": "candidateNames",
          "type": "bytes32[]"
        }
      ],
      "payable": false,
      "stateMutability": "nonpayable",
      "type": "constructor"
    },
    {
      "anonymous": false,
      "inputs": [
        {
          "indexed": false,
          "internalType": "uint256",
          "name": "candidate",
          "type": "uint256"
        },
        {
          "indexed": false,
          "internalType": "string",
          "name": "gender",
          "type": "string"
        },
        {
          "indexed": false,
          "internalType": "string",
          "name": "region",
          "type": "string"
        }
      ],
      "name": "Vote",
      "type": "event"
    },
    {
      "constant": true,
      "inputs": [
        {
          "internalType": "uint256",
          "name": "",
          "type": "uint256"
        }
      ],
      "name": "candidates",
      "outputs": [
        {
          "internalType": "bytes32",
          "name": "name",
          "type": "bytes32"
        },
        {
          "internalType": "uint256",
          "name": "voteCount",
          "type": "uint256"
        },
        {
          "internalType": "uint256",
          "name": "maleCount",
          "type": "uint256"
        },
        {
          "internalType": "uint256",
          "name": "femaleCount",
          "type": "uint256"
        },
        {
          "internalType": "uint256",
          "name": "region1Count",
          "type": "uint256"
        },
        {
          "internalType": "uint256",
          "name": "region2Count",
          "type": "uint256"
        },
        {
          "internalType": "uint256",
          "name": "region3Count",
          "type": "uint256"
        }
      ],
      "payable": false,
      "stateMutability": "view",
      "type": "function"
    },
    {
      "constant": true,
      "inputs": [],
      "name": "chairperson",
      "outputs": [
        {
          "internalType": "address",
          "name": "",
          "type": "address"
        }
      ],
      "payable": false,
      "stateMutability": "view",
      "type": "function"
    },
    {
      "constant": true,
      "inputs": [],
      "name": "name",
      "outputs": [
        {
          "internalType": "string",
          "name": "",
          "type": "string"
        }
      ],
      "payable": false,
      "stateMutability": "view",
      "type": "function"
    },
    {
      "constant": true,
      "inputs": [
        {
          "internalType": "address",
          "name": "",
          "type": "address"
        }
      ],
      "name": "voters",
      "outputs": [
        {
          "internalType": "bool",
          "name": "voted",
          "type": "bool"
        },
        {
          "internalType": "uint256",
          "name": "weight",
          "type": "uint256"
        },
        {
          "internalType": "uint256",
          "name": "vote",
          "type": "uint256"
        }
      ],
      "payable": false,
      "stateMutability": "view",
      "type": "function"
    },
    {
      "constant": true,
      "inputs": [],
      "name": "cLength",
      "outputs": [
        {
          "internalType": "uint256",
          "name": "",
          "type": "uint256"
        }
      ],
      "payable": false,
      "stateMutability": "view",
      "type": "function"
    },
    {
      "constant": false,
      "inputs": [
        {
          "internalType": "address",
          "name": "voter",
          "type": "address"
        }
      ],
      "name": "giveAccessToVote",
      "outputs": [],
      "payable": false,
      "stateMutability": "nonpayable",
      "type": "function"
    },
    {
      "constant": false,
      "inputs": [
        {
          "internalType": "uint256",
          "name": "candidate",
          "type": "uint256"
        },
        {
          "internalType": "string",
          "name": "gender",
          "type": "string"
        },
        {
          "internalType": "string",
          "name": "region",
          "type": "string"
        }
      ],
      "name": "vote",
      "outputs": [
        {
          "internalType": "bool",
          "name": "success",
          "type": "bool"
        }
      ],
      "payable": false,
      "stateMutability": "nonpayable",
      "type": "function"
    },
    {
      "constant": true,
      "inputs": [],
      "name": "winningCandidateIndex",
      "outputs": [
        {
          "internalType": "uint256",
          "name": "winningIndex_",
          "type": "uint256"
        }
      ],
      "payable": false,
      "stateMutability": "view",
      "type": "function"
    },
    {
      "constant": true,
      "inputs": [],
      "name": "winningCandidateName",
      "outputs": [
        {
          "internalType": "bytes32",
          "name": "winningName_",
          "type": "bytes32"
        }
      ],
      "payable": false,
      "stateMutability": "view",
      "type": "function"
    }
  ],
  "bytecode": "0x60806040526040518060400160405280600681526020017f62616c6c6f7400000000000000000000000000000000000000000000000000008152506000908051906020019062000051929190620002b5565b503480156200005f57600080fd5b506040516200110b3803806200110b833981810160405260208110156200008557600080fd5b8101908080516040519392919084640100000000821115620000a657600080fd5b83820191506020820185811115620000bd57600080fd5b8251866020820283011164010000000082111715620000db57600080fd5b8083526020830192505050908051906020019060200280838360005b8381101562000114578082015181840152602081019050620000f7565b5050505090500160405250505033600360006101000a81548173ffffffffffffffffffffffffffffffffffffffff021916908373ffffffffffffffffffffffffffffffffffffffff160217905550600160026000600360009054906101000a900473ffffffffffffffffffffffffffffffffffffffff1673ffffffffffffffffffffffffffffffffffffffff1673ffffffffffffffffffffffffffffffffffffffff1681526020019081526020016000206001018190555060008090505b8151811015620002ad5760016040518060e00160405280848481518110620001f657fe5b602002602001015181526020016000815260200160008152602001600081526020016000815260200160008152602001600081525090806001815401808255809150509060018203906000526020600020906007020160009091929091909150600082015181600001556020820151816001015560408201518160020155606082015181600301556080820151816004015560a0820151816005015560c082015181600601555050508080600101915050620001d2565b505062000364565b828054600181600116156101000203166002900490600052602060002090601f016020900481019282601f10620002f857805160ff191683800117855562000329565b8280016001018555821562000329579182015b82811115620003285782518255916020019190600101906200030b565b5b5090506200033891906200033c565b5090565b6200036191905b808211156200035d57600081600090555060010162000343565b5090565b90565b610d9780620003746000396000f3fe608060405234801561001057600080fd5b50600436106100935760003560e01c80633477ee2e116100665780633477ee2e146101c7578063a3ec138d14610233578063b10847591461029d578063d45236fd14610411578063f1856c081461042f57610093565b806306fdde031461009857806325648cc81461011b57806325725823146101395780632e4176cf1461017d575b600080fd5b6100a061044d565b6040518080602001828103825283818151815260200191508051906020019080838360005b838110156100e05780820151818401526020810190506100c5565b50505050905090810190601f16801561010d5780820380516001836020036101000a031916815260200191505b509250505060405180910390f35b6101236104eb565b6040518082815260200191505060405180910390f35b61017b6004803603602081101561014f57600080fd5b81019080803573ffffffffffffffffffffffffffffffffffffffff1690602001909291905050506104f8565b005b610185610764565b604051808273ffffffffffffffffffffffffffffffffffffffff1673ffffffffffffffffffffffffffffffffffffffff16815260200191505060405180910390f35b6101f3600480360360208110156101dd57600080fd5b810190808035906020019092919050505061078a565b6040518088815260200187815260200186815260200185815260200184815260200183815260200182815260200197505050505050505060405180910390f35b6102756004803603602081101561024957600080fd5b81019080803573ffffffffffffffffffffffffffffffffffffffff1690602001909291905050506107d9565b6040518084151515158152602001838152602001828152602001935050505060405180910390f35b6103f7600480360360608110156102b357600080fd5b8101908080359060200190929190803590602001906401000000008111156102da57600080fd5b8201836020820111156102ec57600080fd5b8035906020019184600183028401116401000000008311171561030e57600080fd5b91908080601f016020809104026020016040519081016040528093929190818152602001838380828437600081840152601f19601f8201169050808301925050505050505091929192908035906020019064010000000081111561037157600080fd5b82018360208201111561038357600080fd5b803590602001918460018302840111640100000000831117156103a557600080fd5b91908080601f016020809104026020016040519081016040528093929190818152602001838380828437600081840152601f19601f820116905080830192505050505050509192919290505050610810565b604051808215151515815260200191505060405180910390f35b610419610c92565b6040518082815260200191505060405180910390f35b610437610cbf565b6040518082815260200191505060405180910390f35b60008054600181600116156101000203166002900480601f0160208091040260200160405190810160405280929190818152602001828054600181600116156101000203166002900480156104e35780601f106104b8576101008083540402835291602001916104e3565b820191906000526020600020905b8154815290600101906020018083116104c657829003601f168201915b505050505081565b6000600180549050905090565b600360009054906101000a900473ffffffffffffffffffffffffffffffffffffffff1673ffffffffffffffffffffffffffffffffffffffff163373ffffffffffffffffffffffffffffffffffffffff161461059e576040517f08c379a000000000000000000000000000000000000000000000000000000000815260040180806020018281038252602c815260200180610d37602c913960400191505060405180910390fd5b600260008273ffffffffffffffffffffffffffffffffffffffff1673ffffffffffffffffffffffffffffffffffffffff16815260200190815260200160002060000160009054906101000a900460ff1615610661576040517f08c379a000000000000000000000000000000000000000000000000000000000815260040180806020018281038252601b8152602001807f54686520766f7465722068617320616c726561647920766f746564000000000081525060200191505060405180910390fd5b6000600260008373ffffffffffffffffffffffffffffffffffffffff1673ffffffffffffffffffffffffffffffffffffffff1681526020019081526020016000206001015414610719576040517f08c379a000000000000000000000000000000000000000000000000000000000815260040180806020018281038252601d8152602001807f497420616c7265616479206861732061636365737320746f20566f746500000081525060200191505060405180910390fd5b6001600260008373ffffffffffffffffffffffffffffffffffffffff1673ffffffffffffffffffffffffffffffffffffffff1681526020019081526020016000206001018190555050565b600360009054906101000a900473ffffffffffffffffffffffffffffffffffffffff1681565b6001818154811061079757fe5b90600052602060002090600702016000915090508060000154908060010154908060020154908060030154908060040154908060050154908060060154905087565b60026020528060005260406000206000915090508060000160009054906101000a900460ff16908060010154908060020154905083565b600080600260003373ffffffffffffffffffffffffffffffffffffffff1673ffffffffffffffffffffffffffffffffffffffff16815260200190815260200160002090508060000160009054906101000a900460ff16156108d9576040517f08c379a000000000000000000000000000000000000000000000000000000000815260040180806020018281038252601b8152602001807f54686520566f7465722068617320616c726561647920766f746564000000000081525060200191505060405180910390fd5b600081600101541415610954576040517f08c379a000000000000000000000000000000000000000000000000000000000815260040180806020018281038252601f8152602001807f54686520706572736f6e20686173206e6f20726967687420746f20766f74650081525060200191505060405180910390fd5b84816002018190555060018160000160006101000a81548160ff021916908315150217905550600180868154811061098857fe5b9060005260206000209060070201600101600082825401925050819055506040518060400160405280600481526020017f6d616c65000000000000000000000000000000000000000000000000000000008152508051906020012084805190602001201415610a225760018086815481106109ff57fe5b906000526020600020906007020160020160008282540192505081905550610a4f565b6001808681548110610a3057fe5b9060005260206000209060070201600301600082825401925050819055505b6040518060400160405280600781526020017f526567696f6e31000000000000000000000000000000000000000000000000008152508051906020012083805190602001201415610acb576001808681548110610aa857fe5b906000526020600020906007020160040160008282540192505081905550610b75565b6040518060400160405280600781526020017f526567696f6e32000000000000000000000000000000000000000000000000008152508051906020012083805190602001201415610b47576001808681548110610b2457fe5b906000526020600020906007020160050160008282540192505081905550610b74565b6001808681548110610b5557fe5b9060005260206000209060070201600601600082825401925050819055505b5b7f15b6e7390dbffeee0d5cc6b21d5f7cf4fd8826734a2e1d19651feaa2f41d6fee858585604051808481526020018060200180602001838103835285818151815260200191508051906020019080838360005b83811015610be3578082015181840152602081019050610bc8565b50505050905090810190601f168015610c105780820380516001836020036101000a031916815260200191505b50838103825284818151815260200191508051906020019080838360005b83811015610c49578082015181840152602081019050610c2e565b50505050905090810190601f168015610c765780820380516001836020036101000a031916815260200191505b509550505050505060405180910390a160019150509392505050565b60006001610c9e610cbf565b81548110610ca857fe5b906000526020600020906007020160000154905090565b6000806000905060008090505b600180549050811015610d31578160018281548110610ce757fe5b9060005260206000209060070201600101541115610d245760018181548110610d0c57fe5b90600052602060002090600702016001015491508092505b8080600101915050610ccc565b50509056fe4f6e6c7920746865206368616972706572736f6e2063616e20676976652061636365737320746f20766f7465a265627a7a7231582092d946e00f1890be3f35e8ee320897abe555385c290a40f26aa5659d3474872b64736f6c63430005110032",
  "source": "pragma solidity ^0.5.0;\r\n\r\ncontract Ballot{\r\n    string public name = 'ballot';\r\n    struct Candidate{\r\n        bytes32 name;\r\n        uint voteCount;\r\n        uint maleCount;\r\n        uint femaleCount;\r\n        uint region1Count;\r\n        uint region2Count;\r\n        uint region3Count;\r\n    }\r\n    struct Voter{\r\n        bool voted;\r\n        uint weight;\r\n        uint vote;\r\n    }\r\n    Candidate[] public candidates;\r\n    mapping(address => Voter) public voters;\r\n    address public chairperson;\r\n    constructor(bytes32[] memory candidateNames) public{\r\n        chairperson = msg.sender;\r\n        voters[chairperson].weight = 1; \r\n        for(uint i = 0; i < candidateNames.length; i++){\r\n            candidates.push(Candidate({\r\n                name: candidateNames[i],\r\n                voteCount: 0,\r\n                maleCount: 0,\r\n                femaleCount: 0,\r\n                region1Count: 0,\r\n                region2Count: 0,\r\n                region3Count: 0\r\n            }));\r\n        }\r\n    }\r\n    function cLength() public view returns (uint256) {\r\n    return candidates.length;\r\n  }\r\n    event Vote(uint candidate, string gender, string region);\r\n\r\n    function giveAccessToVote(address voter) public {\r\n        require(msg.sender == chairperson, 'Only the chairperson can give access to vote');\r\n        require(!voters[voter].voted, 'The voter has already voted' );\r\n        require(voters[voter].weight == 0, 'It already has access to Vote');\r\n        voters[voter].weight = 1;\r\n    }\r\n    function vote(uint candidate, string memory gender, string memory region) public returns(bool success){\r\n        Voter storage sender = voters[msg.sender];\r\n        require(!sender.voted, 'The Voter has already voted');\r\n        require(sender.weight != 0, 'The person has no right to vote');\r\n        sender.vote = candidate;\r\n        sender.voted = true;\r\n        candidates[candidate].voteCount += 1;\r\n        if(keccak256(bytes(gender)) == keccak256(bytes('male'))){\r\n            candidates[candidate].maleCount += 1;\r\n        }else{\r\n            candidates[candidate].femaleCount += 1;\r\n        }\r\n        if(keccak256(bytes(region)) == keccak256(bytes('Region1'))){\r\n            candidates[candidate].region1Count += 1;\r\n        }else if(keccak256(bytes(region)) == keccak256(bytes('Region2'))){\r\n            candidates[candidate].region2Count += 1;\r\n        }else{\r\n            candidates[candidate].region3Count += 1;\r\n        }\r\n        emit Vote(candidate,gender,region);\r\n        return true;\r\n    }\r\n    function winningCandidateIndex() public view returns(uint winningIndex_){\r\n        uint winningVoteCount = 0;\r\n        for(uint i = 0; i < candidates.length; i++){\r\n            if(candidates[i].voteCount > winningVoteCount){\r\n                winningVoteCount = candidates[i].voteCount;\r\n                winningIndex_= i;\r\n            }\r\n        }\r\n    }\r\n    function winningCandidateName() public view returns(bytes32 winningName_){\r\n        winningName_ = candidates[winningCandidateIndex()].name;\r\n    }\r\n   \r\n}",
  "sourcePath": "F:\\major_project\\voting_app\\voting_app\\src\\contracts\\Ballot.sol",
  "compiler": {
    "name": "solc",
    "version": "0.5.17+commit.d19bba13.Emscripten.clang"
  },
  "schemaVersion": "3.4.4",
  "updatedAt": "2022-04-08T04:36:24.577Z",
  "networkType": "ethereum",
  "devdoc": {
    "methods": {}
  },
  "userdoc": {
    "methods": {}
  }
}