{
  "contractName": "Ballot",
  "abi": [
    {
      "inputs": [
        {
          "internalType": "bytes32[]",
          "name": "candidateNames",
          "type": "bytes32[]"
        }
      ],
      "payable": false,
      "stateMutability": "nonpayable",
      "type": "constructor"
    },
    {
      "anonymous": false,
      "inputs": [
        {
          "indexed": false,
          "internalType": "uint256",
          "name": "candidate",
          "type": "uint256"
        },
        {
          "indexed": false,
          "internalType": "string",
          "name": "gender",
          "type": "string"
        }
      ],
      "name": "Vote",
      "type": "event"
    },
    {
      "constant": true,
      "inputs": [
        {
          "internalType": "uint256",
          "name": "",
          "type": "uint256"
        }
      ],
      "name": "candidates",
      "outputs": [
        {
          "internalType": "bytes32",
          "name": "name",
          "type": "bytes32"
        },
        {
          "internalType": "uint256",
          "name": "voteCount",
          "type": "uint256"
        },
        {
          "internalType": "uint256",
          "name": "maleCount",
          "type": "uint256"
        },
        {
          "internalType": "uint256",
          "name": "femaleCount",
          "type": "uint256"
        }
      ],
      "payable": false,
      "stateMutability": "view",
      "type": "function"
    },
    {
      "constant": true,
      "inputs": [],
      "name": "chairperson",
      "outputs": [
        {
          "internalType": "address",
          "name": "",
          "type": "address"
        }
      ],
      "payable": false,
      "stateMutability": "view",
      "type": "function"
    },
    {
      "constant": true,
      "inputs": [],
      "name": "name",
      "outputs": [
        {
          "internalType": "string",
          "name": "",
          "type": "string"
        }
      ],
      "payable": false,
      "stateMutability": "view",
      "type": "function"
    },
    {
      "constant": true,
      "inputs": [
        {
          "internalType": "address",
          "name": "",
          "type": "address"
        }
      ],
      "name": "voters",
      "outputs": [
        {
          "internalType": "bool",
          "name": "voted",
          "type": "bool"
        },
        {
          "internalType": "uint256",
          "name": "weight",
          "type": "uint256"
        },
        {
          "internalType": "uint256",
          "name": "vote",
          "type": "uint256"
        }
      ],
      "payable": false,
      "stateMutability": "view",
      "type": "function"
    },
    {
      "constant": true,
      "inputs": [],
      "name": "cLength",
      "outputs": [
        {
          "internalType": "uint256",
          "name": "",
          "type": "uint256"
        }
      ],
      "payable": false,
      "stateMutability": "view",
      "type": "function"
    },
    {
      "constant": true,
      "inputs": [
        {
          "internalType": "string",
          "name": "a",
          "type": "string"
        },
        {
          "internalType": "string",
          "name": "b",
          "type": "string"
        }
      ],
      "name": "compareStrings",
      "outputs": [
        {
          "internalType": "bool",
          "name": "",
          "type": "bool"
        }
      ],
      "payable": false,
      "stateMutability": "view",
      "type": "function"
    },
    {
      "constant": false,
      "inputs": [
        {
          "internalType": "address",
          "name": "voter",
          "type": "address"
        }
      ],
      "name": "giveAccessToVote",
      "outputs": [],
      "payable": false,
      "stateMutability": "nonpayable",
      "type": "function"
    },
    {
      "constant": false,
      "inputs": [
        {
          "internalType": "uint256",
          "name": "candidate",
          "type": "uint256"
        },
        {
          "internalType": "string",
          "name": "gender",
          "type": "string"
        }
      ],
      "name": "vote",
      "outputs": [
        {
          "internalType": "bool",
          "name": "success",
          "type": "bool"
        }
      ],
      "payable": false,
      "stateMutability": "nonpayable",
      "type": "function"
    },
    {
      "constant": true,
      "inputs": [],
      "name": "winningCandidateIndex",
      "outputs": [
        {
          "internalType": "uint256",
          "name": "winningIndex_",
          "type": "uint256"
        }
      ],
      "payable": false,
      "stateMutability": "view",
      "type": "function"
    },
    {
      "constant": true,
      "inputs": [],
      "name": "winningCandidateName",
      "outputs": [
        {
          "internalType": "bytes32",
          "name": "winningName_",
          "type": "bytes32"
        }
      ],
      "payable": false,
      "stateMutability": "view",
      "type": "function"
    }
  ],
  "bytecode": "0x60806040526040518060400160405280600681526020017f62616c6c6f740000000000000000000000000000000000000000000000000000815250600090805190602001906200005192919062000282565b503480156200005f57600080fd5b50604051620010ea380380620010ea833981810160405260208110156200008557600080fd5b8101908080516040519392919084640100000000821115620000a657600080fd5b83820191506020820185811115620000bd57600080fd5b8251866020820283011164010000000082111715620000db57600080fd5b8083526020830192505050908051906020019060200280838360005b8381101562000114578082015181840152602081019050620000f7565b5050505090500160405250505033600360006101000a81548173ffffffffffffffffffffffffffffffffffffffff021916908373ffffffffffffffffffffffffffffffffffffffff160217905550600160026000600360009054906101000a900473ffffffffffffffffffffffffffffffffffffffff1673ffffffffffffffffffffffffffffffffffffffff1673ffffffffffffffffffffffffffffffffffffffff1681526020019081526020016000206001018190555060008090505b81518110156200027a5760016040518060800160405280848481518110620001f657fe5b602002602001015181526020016000815260200160008152602001600081525090806001815401808255809150509060018203906000526020600020906004020160009091929091909150600082015181600001556020820151816001015560408201518160020155606082015181600301555050508080600101915050620001d2565b505062000331565b828054600181600116156101000203166002900490600052602060002090601f016020900481019282601f10620002c557805160ff1916838001178555620002f6565b82800160010185558215620002f6579182015b82811115620002f5578251825591602001919060010190620002d8565b5b50905062000305919062000309565b5090565b6200032e91905b808211156200032a57600081600090555060010162000310565b5090565b90565b610da980620003416000396000f3fe608060405234801561001057600080fd5b506004361061009e5760003560e01c80633477ee2e116100665780633477ee2e146102af578063a3ec138d14610306578063bed34bba14610370578063d45236fd146104da578063f1856c08146104f85761009e565b806306fdde03146100a3578063241084751461012657806325648cc81461020357806325725823146102215780632e4176cf14610265575b600080fd5b6100ab610516565b6040518080602001828103825283818151815260200191508051906020019080838360005b838110156100eb5780820151818401526020810190506100d0565b50505050905090810190601f1680156101185780820380516001836020036101000a031916815260200191505b509250505060405180910390f35b6101e96004803603604081101561013c57600080fd5b81019080803590602001909291908035906020019064010000000081111561016357600080fd5b82018360208201111561017557600080fd5b8035906020019184600183028401116401000000008311171561019757600080fd5b91908080601f016020809104026020016040519081016040528093929190818152602001838380828437600081840152601f19601f8201169050808301925050505050505091929192905050506105b4565b604051808215151515815260200191505060405180910390f35b61020b6108a2565b6040518082815260200191505060405180910390f35b6102636004803603602081101561023757600080fd5b81019080803573ffffffffffffffffffffffffffffffffffffffff1690602001909291905050506108af565b005b61026d610b1b565b604051808273ffffffffffffffffffffffffffffffffffffffff1673ffffffffffffffffffffffffffffffffffffffff16815260200191505060405180910390f35b6102db600480360360208110156102c557600080fd5b8101908080359060200190929190505050610b41565b6040518085815260200184815260200183815260200182815260200194505050505060405180910390f35b6103486004803603602081101561031c57600080fd5b81019080803573ffffffffffffffffffffffffffffffffffffffff169060200190929190505050610b7e565b6040518084151515158152602001838152602001828152602001935050505060405180910390f35b6104c06004803603604081101561038657600080fd5b81019080803590602001906401000000008111156103a357600080fd5b8201836020820111156103b557600080fd5b803590602001918460018302840111640100000000831117156103d757600080fd5b91908080601f016020809104026020016040519081016040528093929190818152602001838380828437600081840152601f19601f8201169050808301925050505050505091929192908035906020019064010000000081111561043a57600080fd5b82018360208201111561044c57600080fd5b8035906020019184600183028401116401000000008311171561046e57600080fd5b91908080601f016020809104026020016040519081016040528093929190818152602001838380828437600081840152601f19601f820116905080830192505050505050509192919290505050610bb5565b604051808215151515815260200191505060405180910390f35b6104e2610ca4565b6040518082815260200191505060405180910390f35b610500610cd1565b6040518082815260200191505060405180910390f35b60008054600181600116156101000203166002900480601f0160208091040260200160405190810160405280929190818152602001828054600181600116156101000203166002900480156105ac5780601f10610581576101008083540402835291602001916105ac565b820191906000526020600020905b81548152906001019060200180831161058f57829003601f168201915b505050505081565b600080600260003373ffffffffffffffffffffffffffffffffffffffff1673ffffffffffffffffffffffffffffffffffffffff16815260200190815260200160002090508060000160009054906101000a900460ff161561067d576040517f08c379a000000000000000000000000000000000000000000000000000000000815260040180806020018281038252601b8152602001807f54686520566f7465722068617320616c726561647920766f746564000000000081525060200191505060405180910390fd5b6000816001015414156106f8576040517f08c379a000000000000000000000000000000000000000000000000000000000815260040180806020018281038252601f8152602001807f54686520706572736f6e20686173206e6f20726967687420746f20766f74650081525060200191505060405180910390fd5b83816002018190555060018160000160006101000a81548160ff021916908315150217905550600180858154811061072c57fe5b9060005260206000209060040201600101600082825401925050819055506040518060400160405280600481526020017f6d616c650000000000000000000000000000000000000000000000000000000081525080519060200120838051906020012014156107c65760018085815481106107a357fe5b9060005260206000209060040201600201600082825401925050819055506107f3565b60018085815481106107d457fe5b9060005260206000209060040201600301600082825401925050819055505b7f1c60e36c6b7be4ff11140e548fec010aaf139c192c401cfe7718d8fe0b348e0384846040518083815260200180602001828103825283818151815260200191508051906020019080838360005b8381101561085c578082015181840152602081019050610841565b50505050905090810190601f1680156108895780820380516001836020036101000a031916815260200191505b50935050505060405180910390a1600191505092915050565b6000600180549050905090565b600360009054906101000a900473ffffffffffffffffffffffffffffffffffffffff1673ffffffffffffffffffffffffffffffffffffffff163373ffffffffffffffffffffffffffffffffffffffff1614610955576040517f08c379a000000000000000000000000000000000000000000000000000000000815260040180806020018281038252602c815260200180610d49602c913960400191505060405180910390fd5b600260008273ffffffffffffffffffffffffffffffffffffffff1673ffffffffffffffffffffffffffffffffffffffff16815260200190815260200160002060000160009054906101000a900460ff1615610a18576040517f08c379a000000000000000000000000000000000000000000000000000000000815260040180806020018281038252601b8152602001807f54686520766f7465722068617320616c726561647920766f746564000000000081525060200191505060405180910390fd5b6000600260008373ffffffffffffffffffffffffffffffffffffffff1673ffffffffffffffffffffffffffffffffffffffff1681526020019081526020016000206001015414610ad0576040517f08c379a000000000000000000000000000000000000000000000000000000000815260040180806020018281038252601d8152602001807f497420616c7265616479206861732061636365737320746f20566f746500000081525060200191505060405180910390fd5b6001600260008373ffffffffffffffffffffffffffffffffffffffff1673ffffffffffffffffffffffffffffffffffffffff1681526020019081526020016000206001018190555050565b600360009054906101000a900473ffffffffffffffffffffffffffffffffffffffff1681565b60018181548110610b4e57fe5b90600052602060002090600402016000915090508060000154908060010154908060020154908060030154905084565b60026020528060005260406000206000915090508060000160009054906101000a900460ff16908060010154908060020154905083565b6000816040516020018082805190602001908083835b60208310610bee5780518252602082019150602081019050602083039250610bcb565b6001836020036101000a03801982511681845116808217855250505050505090500191505060405160208183030381529060405280519060200120836040516020018082805190602001908083835b60208310610c605780518252602082019150602081019050602083039250610c3d565b6001836020036101000a0380198251168184511680821785525050505050509050019150506040516020818303038152906040528051906020012014905092915050565b60006001610cb0610cd1565b81548110610cba57fe5b906000526020600020906004020160000154905090565b6000806000905060008090505b600180549050811015610d43578160018281548110610cf957fe5b9060005260206000209060040201600101541115610d365760018181548110610d1e57fe5b90600052602060002090600402016001015491508092505b8080600101915050610cde565b50509056fe4f6e6c7920746865206368616972706572736f6e2063616e20676976652061636365737320746f20766f7465a265627a7a72315820cacb0f3801d87cec956446de061fb90116a44432486aa110071e9030ca4dc44c64736f6c63430005110032",
  "source": "pragma solidity ^0.5.0;\r\n\r\ncontract Ballot{\r\n    string public name = 'ballot';\r\n    struct Candidate{\r\n        bytes32 name;\r\n        uint voteCount;\r\n        uint maleCount;\r\n        uint femaleCount;\r\n    }\r\n    struct Voter{\r\n        bool voted;\r\n        uint weight;\r\n        uint vote;\r\n    }\r\n    Candidate[] public candidates;\r\n    mapping(address => Voter) public voters;\r\n    address public chairperson;\r\n    constructor(bytes32[] memory candidateNames) public{\r\n        chairperson = msg.sender;\r\n        voters[chairperson].weight = 1; \r\n        for(uint i = 0; i < candidateNames.length; i++){\r\n            candidates.push(Candidate({\r\n                name: candidateNames[i],\r\n                voteCount: 0,\r\n                maleCount: 0,\r\n                femaleCount: 0\r\n            }));\r\n        }\r\n    }\r\n    function cLength() public view returns (uint256) {\r\n    return candidates.length;\r\n  }\r\n    event Vote(uint candidate, string gender);\r\n    function compareStrings(string memory a, string memory b) public view returns (bool) {\r\n    return (keccak256(abi.encodePacked((a))) == keccak256(abi.encodePacked((b))));\r\n}\r\n    function giveAccessToVote(address voter) public {\r\n        require(msg.sender == chairperson, 'Only the chairperson can give access to vote');\r\n        require(!voters[voter].voted, 'The voter has already voted' );\r\n        require(voters[voter].weight == 0, 'It already has access to Vote');\r\n        voters[voter].weight = 1;\r\n    }\r\n    function vote(uint candidate, string memory gender) public returns(bool success){\r\n        Voter storage sender = voters[msg.sender];\r\n        require(!sender.voted, 'The Voter has already voted');\r\n        require(sender.weight != 0, 'The person has no right to vote');\r\n        sender.vote = candidate;\r\n        sender.voted = true;\r\n        candidates[candidate].voteCount += 1;\r\n        if(keccak256(bytes(gender)) == keccak256(bytes('male'))){\r\n            candidates[candidate].maleCount += 1;\r\n        }else{\r\n            candidates[candidate].femaleCount += 1;\r\n        }\r\n        emit Vote(candidate,gender);\r\n        return true;\r\n    }\r\n    function winningCandidateIndex() public view returns(uint winningIndex_){\r\n        uint winningVoteCount = 0;\r\n        for(uint i = 0; i < candidates.length; i++){\r\n            if(candidates[i].voteCount > winningVoteCount){\r\n                winningVoteCount = candidates[i].voteCount;\r\n                winningIndex_= i;\r\n            }\r\n        }\r\n    }\r\n    function winningCandidateName() public view returns(bytes32 winningName_){\r\n        winningName_ = candidates[winningCandidateIndex()].name;\r\n    }\r\n   \r\n}",
  "sourcePath": "F:\\major_project\\voting_app\\voting_app\\src\\contracts\\Ballot.sol",
  "compiler": {
    "name": "solc",
    "version": "0.5.17+commit.d19bba13.Emscripten.clang"
  },
  "schemaVersion": "3.4.4",
  "updatedAt": "2022-04-07T15:11:18.757Z",
  "networkType": "ethereum",
  "devdoc": {
    "methods": {}
  },
  "userdoc": {
    "methods": {}
  }
}