{
  "contractName": "Ballot",
  "abi": [
    {
      "inputs": [
        {
          "internalType": "bytes32[]",
          "name": "candidateNames",
          "type": "bytes32[]"
        }
      ],
      "payable": false,
      "stateMutability": "nonpayable",
      "type": "constructor"
    },
    {
      "anonymous": false,
      "inputs": [
        {
          "indexed": false,
          "internalType": "uint256",
          "name": "candidate",
          "type": "uint256"
        }
      ],
      "name": "Vote",
      "type": "event"
    },
    {
      "constant": true,
      "inputs": [
        {
          "internalType": "uint256",
          "name": "",
          "type": "uint256"
        }
      ],
      "name": "candidates",
      "outputs": [
        {
          "internalType": "bytes32",
          "name": "name",
          "type": "bytes32"
        },
        {
          "internalType": "uint256",
          "name": "voteCount",
          "type": "uint256"
        }
      ],
      "payable": false,
      "stateMutability": "view",
      "type": "function"
    },
    {
      "constant": true,
      "inputs": [],
      "name": "chairperson",
      "outputs": [
        {
          "internalType": "address",
          "name": "",
          "type": "address"
        }
      ],
      "payable": false,
      "stateMutability": "view",
      "type": "function"
    },
    {
      "constant": true,
      "inputs": [],
      "name": "name",
      "outputs": [
        {
          "internalType": "string",
          "name": "",
          "type": "string"
        }
      ],
      "payable": false,
      "stateMutability": "view",
      "type": "function"
    },
    {
      "constant": true,
      "inputs": [
        {
          "internalType": "address",
          "name": "",
          "type": "address"
        }
      ],
      "name": "voters",
      "outputs": [
        {
          "internalType": "bool",
          "name": "voted",
          "type": "bool"
        },
        {
          "internalType": "uint256",
          "name": "weight",
          "type": "uint256"
        },
        {
          "internalType": "uint256",
          "name": "vote",
          "type": "uint256"
        }
      ],
      "payable": false,
      "stateMutability": "view",
      "type": "function"
    },
    {
      "constant": true,
      "inputs": [],
      "name": "cLength",
      "outputs": [
        {
          "internalType": "uint256",
          "name": "",
          "type": "uint256"
        }
      ],
      "payable": false,
      "stateMutability": "view",
      "type": "function"
    },
    {
      "constant": false,
      "inputs": [
        {
          "internalType": "address",
          "name": "voter",
          "type": "address"
        }
      ],
      "name": "giveAccessToVote",
      "outputs": [],
      "payable": false,
      "stateMutability": "nonpayable",
      "type": "function"
    },
    {
      "constant": false,
      "inputs": [
        {
          "internalType": "uint256",
          "name": "candidate",
          "type": "uint256"
        }
      ],
      "name": "vote",
      "outputs": [
        {
          "internalType": "bool",
          "name": "success",
          "type": "bool"
        }
      ],
      "payable": false,
      "stateMutability": "nonpayable",
      "type": "function"
    },
    {
      "constant": true,
      "inputs": [],
      "name": "winningCandidateIndex",
      "outputs": [
        {
          "internalType": "uint256",
          "name": "winningIndex_",
          "type": "uint256"
        }
      ],
      "payable": false,
      "stateMutability": "view",
      "type": "function"
    },
    {
      "constant": true,
      "inputs": [],
      "name": "winningCandidateName",
      "outputs": [
        {
          "internalType": "bytes32",
          "name": "winningName_",
          "type": "bytes32"
        }
      ],
      "payable": false,
      "stateMutability": "view",
      "type": "function"
    }
  ],
  "bytecode": "0x60806040526040518060400160405280600681526020017f62616c6c6f7400000000000000000000000000000000000000000000000000008152506000908051906020019061004f929190610251565b5034801561005c57600080fd5b50604051610c07380380610c078339818101604052602081101561007f57600080fd5b810190808051604051939291908464010000000082111561009f57600080fd5b838201915060208201858111156100b557600080fd5b82518660208202830111640100000000821117156100d257600080fd5b8083526020830192505050908051906020019060200280838360005b838110156101095780820151818401526020810190506100ee565b5050505090500160405250505033600360006101000a81548173ffffffffffffffffffffffffffffffffffffffff021916908373ffffffffffffffffffffffffffffffffffffffff160217905550600160026000600360009054906101000a900473ffffffffffffffffffffffffffffffffffffffff1673ffffffffffffffffffffffffffffffffffffffff1673ffffffffffffffffffffffffffffffffffffffff1681526020019081526020016000206001018190555060008090505b815181101561024a57600160405180604001604052808484815181106101e957fe5b60200260200101518152602001600081525090806001815401808255809150509060018203906000526020600020906002020160009091929091909150600082015181600001556020820151816001015550505080806001019150506101c7565b50506102f6565b828054600181600116156101000203166002900490600052602060002090601f016020900481019282601f1061029257805160ff19168380011785556102c0565b828001600101855582156102c0579182015b828111156102bf5782518255916020019190600101906102a4565b5b5090506102cd91906102d1565b5090565b6102f391905b808211156102ef5760008160009055506001016102d7565b5090565b90565b610902806103056000396000f3fe608060405234801561001057600080fd5b50600436106100935760003560e01c80632e4176cf116100665780632e4176cf146101c35780633477ee2e1461020d578063a3ec138d14610256578063d45236fd146102c0578063f1856c08146102de57610093565b80630121b93f1461009857806306fdde03146100de57806325648cc814610161578063257258231461017f575b600080fd5b6100c4600480360360208110156100ae57600080fd5b81019080803590602001909291905050506102fc565b604051808215151515815260200191505060405180910390f35b6100e6610458565b6040518080602001828103825283818151815260200191508051906020019080838360005b8381101561012657808201518184015260208101905061010b565b50505050905090810190601f1680156101535780820380516001836020036101000a031916815260200191505b509250505060405180910390f35b6101696104f6565b6040518082815260200191505060405180910390f35b6101c16004803603602081101561019557600080fd5b81019080803573ffffffffffffffffffffffffffffffffffffffff169060200190929190505050610503565b005b6101cb61076f565b604051808273ffffffffffffffffffffffffffffffffffffffff1673ffffffffffffffffffffffffffffffffffffffff16815260200191505060405180910390f35b6102396004803603602081101561022357600080fd5b8101908080359060200190929190505050610795565b604051808381526020018281526020019250505060405180910390f35b6102986004803603602081101561026c57600080fd5b81019080803573ffffffffffffffffffffffffffffffffffffffff1690602001909291905050506107c6565b6040518084151515158152602001838152602001828152602001935050505060405180910390f35b6102c86107fd565b6040518082815260200191505060405180910390f35b6102e661082a565b6040518082815260200191505060405180910390f35b600080600260003373ffffffffffffffffffffffffffffffffffffffff1673ffffffffffffffffffffffffffffffffffffffff16815260200190815260200160002090508060000160009054906101000a900460ff16156103c5576040517f08c379a000000000000000000000000000000000000000000000000000000000815260040180806020018281038252601b8152602001807f54686520566f7465722068617320616c726561647920766f746564000000000081525060200191505060405180910390fd5b82816002018190555060018160000160006101000a81548160ff02191690831515021790555060018084815481106103f957fe5b9060005260206000209060020201600101600082825401925050819055507fdcd6a5cd90707bfd61ed2fddae23e88c584cb5b78a0e9989710a59fd84c0a1f9836040518082815260200191505060405180910390a16001915050919050565b60008054600181600116156101000203166002900480601f0160208091040260200160405190810160405280929190818152602001828054600181600116156101000203166002900480156104ee5780601f106104c3576101008083540402835291602001916104ee565b820191906000526020600020905b8154815290600101906020018083116104d157829003601f168201915b505050505081565b6000600180549050905090565b600360009054906101000a900473ffffffffffffffffffffffffffffffffffffffff1673ffffffffffffffffffffffffffffffffffffffff163373ffffffffffffffffffffffffffffffffffffffff16146105a9576040517f08c379a000000000000000000000000000000000000000000000000000000000815260040180806020018281038252602c8152602001806108a2602c913960400191505060405180910390fd5b600260008273ffffffffffffffffffffffffffffffffffffffff1673ffffffffffffffffffffffffffffffffffffffff16815260200190815260200160002060000160009054906101000a900460ff161561066c576040517f08c379a000000000000000000000000000000000000000000000000000000000815260040180806020018281038252601b8152602001807f54686520766f7465722068617320616c726561647920766f746564000000000081525060200191505060405180910390fd5b6000600260008373ffffffffffffffffffffffffffffffffffffffff1673ffffffffffffffffffffffffffffffffffffffff1681526020019081526020016000206001015414610724576040517f08c379a000000000000000000000000000000000000000000000000000000000815260040180806020018281038252601d8152602001807f497420616c7265616479206861732061636365737320746f20566f746500000081525060200191505060405180910390fd5b6001600260008373ffffffffffffffffffffffffffffffffffffffff1673ffffffffffffffffffffffffffffffffffffffff1681526020019081526020016000206001018190555050565b600360009054906101000a900473ffffffffffffffffffffffffffffffffffffffff1681565b600181815481106107a257fe5b90600052602060002090600202016000915090508060000154908060010154905082565b60026020528060005260406000206000915090508060000160009054906101000a900460ff16908060010154908060020154905083565b6000600161080961082a565b8154811061081357fe5b906000526020600020906002020160000154905090565b6000806000905060008090505b60018054905081101561089c57816001828154811061085257fe5b906000526020600020906002020160010154111561088f576001818154811061087757fe5b90600052602060002090600202016001015491508092505b8080600101915050610837565b50509056fe4f6e6c7920746865206368616972706572736f6e2063616e20676976652061636365737320746f20766f7465a265627a7a723158208a9139534007ef2821dd5884a6e79ad4584974fbf05442fc38e6c2daa25eeea064736f6c63430005110032",
  "source": "pragma solidity ^0.5.0;\r\n\r\ncontract Ballot{\r\n    string public name = 'ballot';\r\n    struct Candidate{\r\n        bytes32 name;\r\n        uint voteCount;\r\n    }\r\n    struct Voter{\r\n        bool voted;\r\n        uint weight;\r\n        uint vote;\r\n    }\r\n    Candidate[] public candidates;\r\n    mapping(address => Voter) public voters;\r\n    address public chairperson;\r\n    constructor(bytes32[] memory candidateNames) public{\r\n        chairperson = msg.sender;\r\n        voters[chairperson].weight = 1; \r\n        for(uint i = 0; i < candidateNames.length; i++){\r\n            candidates.push(Candidate({\r\n                name: candidateNames[i],\r\n                voteCount: 0\r\n            }));\r\n        }\r\n    }\r\n    function cLength() public view returns (uint256) {\r\n    return candidates.length;\r\n  }\r\n    event Vote(uint candidate);\r\n    function giveAccessToVote(address voter) public {\r\n        require(msg.sender == chairperson, 'Only the chairperson can give access to vote');\r\n        require(!voters[voter].voted, 'The voter has already voted' );\r\n        require(voters[voter].weight == 0, 'It already has access to Vote');\r\n        voters[voter].weight = 1;\r\n    }\r\n    function vote(uint candidate) public returns(bool success){\r\n        Voter storage sender = voters[msg.sender];\r\n        require(!sender.voted, 'The Voter has already voted');\r\n        //require(sender.weight != 0, 'The person has no right to vote');\r\n        sender.vote = candidate;\r\n        sender.voted = true;\r\n        candidates[candidate].voteCount += 1;\r\n        emit Vote(candidate);\r\n        return true;\r\n    }\r\n    function winningCandidateIndex() public view returns(uint winningIndex_){\r\n        uint winningVoteCount = 0;\r\n        for(uint i = 0; i < candidates.length; i++){\r\n            if(candidates[i].voteCount > winningVoteCount){\r\n                winningVoteCount = candidates[i].voteCount;\r\n                winningIndex_= i;\r\n            }\r\n        }\r\n    }\r\n    function winningCandidateName() public view returns(bytes32 winningName_){\r\n       \r\n        winningName_ = candidates[winningCandidateIndex()].name;\r\n    }\r\n}",
  "sourcePath": "F:\\major_project\\voting_app\\voting_app\\src\\contracts\\Ballot.sol",
  "compiler": {
    "name": "solc",
    "version": "0.5.17+commit.d19bba13.Emscripten.clang"
  },
  "schemaVersion": "3.4.4",
  "updatedAt": "2022-03-31T08:05:25.034Z",
  "networkType": "ethereum",
  "devdoc": {
    "methods": {}
  },
  "userdoc": {
    "methods": {}
  }
}